{"abi":[{"type":"constructor","inputs":[],"stateMutability":"nonpayable"},{"type":"function","name":"addExtraWater","inputs":[{"name":"user","type":"address","internalType":"address"},{"name":"amount","type":"uint256","internalType":"uint256"},{"name":"reason","type":"string","internalType":"string"}],"outputs":[],"stateMutability":"nonpayable"},{"type":"function","name":"approve","inputs":[{"name":"to","type":"address","internalType":"address"},{"name":"tokenId","type":"uint256","internalType":"uint256"}],"outputs":[],"stateMutability":"nonpayable"},{"type":"function","name":"balanceOf","inputs":[{"name":"owner","type":"address","internalType":"address"}],"outputs":[{"name":"","type":"uint256","internalType":"uint256"}],"stateMutability":"view"},{"type":"function","name":"canWaterToday","inputs":[{"name":"user","type":"address","internalType":"address"}],"outputs":[{"name":"","type":"bool","internalType":"bool"}],"stateMutability":"view"},{"type":"function","name":"getApproved","inputs":[{"name":"tokenId","type":"uint256","internalType":"uint256"}],"outputs":[{"name":"","type":"address","internalType":"address"}],"stateMutability":"view"},{"type":"function","name":"getStage","inputs":[{"name":"tokenId","type":"uint256","internalType":"uint256"}],"outputs":[{"name":"","type":"uint256","internalType":"uint256"}],"stateMutability":"view"},{"type":"function","name":"getTreeData","inputs":[{"name":"user","type":"address","internalType":"address"}],"outputs":[{"name":"","type":"tuple","internalType":"struct TreeNFT.Tree","components":[{"name":"waterCount","type":"uint256","internalType":"uint256"},{"name":"lastWateredDay","type":"uint256","internalType":"uint256"},{"name":"currentStreak","type":"uint256","internalType":"uint256"},{"name":"longestStreak","type":"uint256","internalType":"uint256"},{"name":"extraWater","type":"uint256","internalType":"uint256"},{"name":"stage","type":"uint256","internalType":"uint256"},{"name":"exists","type":"bool","internalType":"bool"}]}],"stateMutability":"view"},{"type":"function","name":"hasTree","inputs":[{"name":"","type":"address","internalType":"address"}],"outputs":[{"name":"","type":"bool","internalType":"bool"}],"stateMutability":"view"},{"type":"function","name":"isApprovedForAll","inputs":[{"name":"owner","type":"address","internalType":"address"},{"name":"operator","type":"address","internalType":"address"}],"outputs":[{"name":"","type":"bool","internalType":"bool"}],"stateMutability":"view"},{"type":"function","name":"mintTree","inputs":[],"outputs":[],"stateMutability":"nonpayable"},{"type":"function","name":"name","inputs":[],"outputs":[{"name":"","type":"string","internalType":"string"}],"stateMutability":"view"},{"type":"function","name":"owner","inputs":[],"outputs":[{"name":"","type":"address","internalType":"address"}],"stateMutability":"view"},{"type":"function","name":"ownerOf","inputs":[{"name":"tokenId","type":"uint256","internalType":"uint256"}],"outputs":[{"name":"","type":"address","internalType":"address"}],"stateMutability":"view"},{"type":"function","name":"renounceOwnership","inputs":[],"outputs":[],"stateMutability":"nonpayable"},{"type":"function","name":"safeTransferFrom","inputs":[{"name":"from","type":"address","internalType":"address"},{"name":"to","type":"address","internalType":"address"},{"name":"tokenId","type":"uint256","internalType":"uint256"}],"outputs":[],"stateMutability":"nonpayable"},{"type":"function","name":"safeTransferFrom","inputs":[{"name":"from","type":"address","internalType":"address"},{"name":"to","type":"address","internalType":"address"},{"name":"tokenId","type":"uint256","internalType":"uint256"},{"name":"data","type":"bytes","internalType":"bytes"}],"outputs":[],"stateMutability":"nonpayable"},{"type":"function","name":"setApprovalForAll","inputs":[{"name":"operator","type":"address","internalType":"address"},{"name":"approved","type":"bool","internalType":"bool"}],"outputs":[],"stateMutability":"nonpayable"},{"type":"function","name":"stageThresholds","inputs":[{"name":"","type":"uint256","internalType":"uint256"}],"outputs":[{"name":"","type":"uint256","internalType":"uint256"}],"stateMutability":"view"},{"type":"function","name":"supportsInterface","inputs":[{"name":"interfaceId","type":"bytes4","internalType":"bytes4"}],"outputs":[{"name":"","type":"bool","internalType":"bool"}],"stateMutability":"view"},{"type":"function","name":"symbol","inputs":[],"outputs":[{"name":"","type":"string","internalType":"string"}],"stateMutability":"view"},{"type":"function","name":"tokenURI","inputs":[{"name":"tokenId","type":"uint256","internalType":"uint256"}],"outputs":[{"name":"","type":"string","internalType":"string"}],"stateMutability":"view"},{"type":"function","name":"totalSupply","inputs":[],"outputs":[{"name":"","type":"uint256","internalType":"uint256"}],"stateMutability":"view"},{"type":"function","name":"transferFrom","inputs":[{"name":"from","type":"address","internalType":"address"},{"name":"to","type":"address","internalType":"address"},{"name":"tokenId","type":"uint256","internalType":"uint256"}],"outputs":[],"stateMutability":"nonpayable"},{"type":"function","name":"transferOwnership","inputs":[{"name":"newOwner","type":"address","internalType":"address"}],"outputs":[],"stateMutability":"nonpayable"},{"type":"function","name":"trees","inputs":[{"name":"","type":"uint256","internalType":"uint256"}],"outputs":[{"name":"waterCount","type":"uint256","internalType":"uint256"},{"name":"lastWateredDay","type":"uint256","internalType":"uint256"},{"name":"currentStreak","type":"uint256","internalType":"uint256"},{"name":"longestStreak","type":"uint256","internalType":"uint256"},{"name":"extraWater","type":"uint256","internalType":"uint256"},{"name":"stage","type":"uint256","internalType":"uint256"},{"name":"exists","type":"bool","internalType":"bool"}],"stateMutability":"view"},{"type":"function","name":"useExtraWater","inputs":[],"outputs":[],"stateMutability":"nonpayable"},{"type":"function","name":"userToTreeId","inputs":[{"name":"","type":"address","internalType":"address"}],"outputs":[{"name":"","type":"uint256","internalType":"uint256"}],"stateMutability":"view"},{"type":"function","name":"waterTree","inputs":[],"outputs":[],"stateMutability":"nonpayable"},{"type":"event","name":"Approval","inputs":[{"name":"owner","type":"address","indexed":true,"internalType":"address"},{"name":"approved","type":"address","indexed":true,"internalType":"address"},{"name":"tokenId","type":"uint256","indexed":true,"internalType":"uint256"}],"anonymous":false},{"type":"event","name":"ApprovalForAll","inputs":[{"name":"owner","type":"address","indexed":true,"internalType":"address"},{"name":"operator","type":"address","indexed":true,"internalType":"address"},{"name":"approved","type":"bool","indexed":false,"internalType":"bool"}],"anonymous":false},{"type":"event","name":"ExtraWaterAdded","inputs":[{"name":"tokenId","type":"uint256","indexed":true,"internalType":"uint256"},{"name":"amount","type":"uint256","indexed":false,"internalType":"uint256"},{"name":"reason","type":"string","indexed":false,"internalType":"string"}],"anonymous":false},{"type":"event","name":"OwnershipTransferred","inputs":[{"name":"previousOwner","type":"address","indexed":true,"internalType":"address"},{"name":"newOwner","type":"address","indexed":true,"internalType":"address"}],"anonymous":false},{"type":"event","name":"StageUpgraded","inputs":[{"name":"tokenId","type":"uint256","indexed":true,"internalType":"uint256"},{"name":"newStage","type":"uint256","indexed":false,"internalType":"uint256"}],"anonymous":false},{"type":"event","name":"Transfer","inputs":[{"name":"from","type":"address","indexed":true,"internalType":"address"},{"name":"to","type":"address","indexed":true,"internalType":"address"},{"name":"tokenId","type":"uint256","indexed":true,"internalType":"uint256"}],"anonymous":false},{"type":"event","name":"TreeMinted","inputs":[{"name":"owner","type":"address","indexed":true,"internalType":"address"},{"name":"tokenId","type":"uint256","indexed":true,"internalType":"uint256"}],"anonymous":false},{"type":"event","name":"TreeWatered","inputs":[{"name":"tokenId","type":"uint256","indexed":true,"internalType":"uint256"},{"name":"newWaterCount","type":"uint256","indexed":false,"internalType":"uint256"},{"name":"currentStreak","type":"uint256","indexed":false,"internalType":"uint256"}],"anonymous":false},{"type":"error","name":"AlreadyHasTree","inputs":[]},{"type":"error","name":"AlreadyWateredToday","inputs":[]},{"type":"error","name":"ERC721IncorrectOwner","inputs":[{"name":"sender","type":"address","internalType":"address"},{"name":"tokenId","type":"uint256","internalType":"uint256"},{"name":"owner","type":"address","internalType":"address"}]},{"type":"error","name":"ERC721InsufficientApproval","inputs":[{"name":"operator","type":"address","internalType":"address"},{"name":"tokenId","type":"uint256","internalType":"uint256"}]},{"type":"error","name":"ERC721InvalidApprover","inputs":[{"name":"approver","type":"address","internalType":"address"}]},{"type":"error","name":"ERC721InvalidOperator","inputs":[{"name":"operator","type":"address","internalType":"address"}]},{"type":"error","name":"ERC721InvalidOwner","inputs":[{"name":"owner","type":"address","internalType":"address"}]},{"type":"error","name":"ERC721InvalidReceiver","inputs":[{"name":"receiver","type":"address","internalType":"address"}]},{"type":"error","name":"ERC721InvalidSender","inputs":[{"name":"sender","type":"address","internalType":"address"}]},{"type":"error","name":"ERC721NonexistentToken","inputs":[{"name":"tokenId","type":"uint256","internalType":"uint256"}]},{"type":"error","name":"InvalidTokenId","inputs":[]},{"type":"error","name":"NoTreeOwned","inputs":[]},{"type":"error","name":"OwnableInvalidOwner","inputs":[{"name":"owner","type":"address","internalType":"address"}]},{"type":"error","name":"OwnableUnauthorizedAccount","inputs":[{"name":"account","type":"address","internalType":"address"}]}],"bytecode":{"object":"0x6101206040525f6080908152600160a052600360c052600760e052600e6101005261002e90600b906005610128565b5034801561003a575f5ffd5b50336040518060400160405280600b81526020016a41726175636f205472656560a81b815250604051806040016040528060048152602001635452454560e01b815250815f908161008b9190610217565b5060016100988282610217565b5050506001600160a01b0381166100c857604051631e4fbdf760e01b81525f600482015260240160405180910390fd5b6100d1816100d7565b506102d1565b600680546001600160a01b038381166001600160a01b0319831681179093556040519116919082907f8be0079c531659141344cd1fd0a4f28419497f9722a3daafe3b4186f6b6457e0905f90a35050565b826005810192821561015b579160200282015b8281111561015b578251829060ff1690559160200191906001019061013b565b5061016792915061016b565b5090565b5b80821115610167575f815560010161016c565b634e487b7160e01b5f52604160045260245ffd5b600181811c908216806101a757607f821691505b6020821081036101c557634e487b7160e01b5f52602260045260245ffd5b50919050565b601f82111561021257805f5260205f20601f840160051c810160208510156101f05750805b601f840160051c820191505b8181101561020f575f81556001016101fc565b50505b505050565b81516001600160401b038111156102305761023061017f565b6102448161023e8454610193565b846101cb565b6020601f821160018114610276575f831561025f5750848201515b5f19600385901b1c1916600184901b17845561020f565b5f84815260208120601f198516915b828110156102a55787850151825560209485019460019092019101610285565b50848210156102c257868401515f19600387901b60f8161c191681555b50505050600190811b01905550565b611b62806102de5f395ff3fe608060405234801561000f575f5ffd5b50600436106101bb575f3560e01c80637a508022116100f3578063b88d4fde11610093578063d97e5aff1161006e578063d97e5aff1461046c578063dfacde1214610474578063e985e9c514610487578063f2fde38b1461049a575f5ffd5b8063b88d4fde146103dc578063ba878100146103ef578063c87b56dd14610459575f5ffd5b806395d89b41116100ce57806395d89b41146103a657806399393857146103ae578063a22cb465146103c1578063a2937d2a146103d4575f5ffd5b80637a508022146102f25780638da5cb5b14610376578063934b7b1214610387575f5ffd5b80632877b3d61161015e57806361c05ab61161013957806361c05ab6146102bc5780636352211e146102c457806370a08231146102d7578063715018a6146102ea575f5ffd5b80632877b3d6146102745780632e3250201461029657806342842e0e146102a9575f5ffd5b8063081812fc11610199578063081812fc14610211578063095ea7b31461023c57806318160ddd1461024f57806323b872dd14610261575f5ffd5b806301ffc9a7146101bf578063037b397f146101e757806306fdde03146101fc575b5f5ffd5b6101d26101cd3660046116bd565b6104ad565b60405190151581526020015b60405180910390f35b6101fa6101f53660046116f3565b6104fe565b005b6102046105c1565b6040516101de91906117a4565b61022461021f3660046117b6565b610650565b6040516001600160a01b0390911681526020016101de565b6101fa61024a3660046117cd565b610677565b6007545b6040519081526020016101de565b6101fa61026f3660046117f5565b610686565b6101d261028236600461182f565b600a6020525f908152604090205460ff1681565b6102536102a43660046117b6565b610714565b6101fa6102b73660046117f5565b61075a565b6101fa610779565b6102246102d23660046117b6565b610893565b6102536102e536600461182f565b61089d565b6101fa6108e2565b61033f6103003660046117b6565b60086020525f90815260409020805460018201546002830154600384015460048501546005860154600690960154949593949293919290919060ff1687565b604080519788526020880196909652948601939093526060850191909152608084015260a0830152151560c082015260e0016101de565b6006546001600160a01b0316610224565b61025361039536600461182f565b60096020525f908152604090205481565b6102046108f5565b6101d26103bc36600461182f565b610904565b6101fa6103cf366004611848565b6109c1565b6101fa6109cc565b6101fa6103ea366004611895565b610bb4565b6104026103fd36600461182f565b610bcc565b6040516101de91905f60e082019050825182526020830151602083015260408301516040830152606083015160608301526080830151608083015260a083015160a083015260c0830151151560c083015292915050565b6102046104673660046117b6565b610cb9565b6101fa610d2a565b6102536104823660046117b6565b610db7565b6101d2610495366004611972565b610dcd565b6101fa6104a836600461182f565b610dfa565b5f6001600160e01b031982166380ac58cd60e01b14806104dd57506001600160e01b03198216635b5e139f60e01b145b806104f857506301ffc9a760e01b6001600160e01b03198316145b92915050565b610506610e37565b6001600160a01b0384165f908152600a602052604090205460ff1661053e5760405163172f599760e21b815260040160405180910390fd5b6001600160a01b0384165f90815260096020908152604080832054808452600890925282206004018054919286926105779084906119b7565b92505081905550807fe715453ebec66e5d432cdce4b45671a10b502782d1ca368fef18fa072cef14818585856040516105b2939291906119ca565b60405180910390a25050505050565b60605f80546105cf906119ff565b80601f01602080910402602001604051908101604052809291908181526020018280546105fb906119ff565b80156106465780601f1061061d57610100808354040283529160200191610646565b820191905f5260205f20905b81548152906001019060200180831161062957829003601f168201915b5050505050905090565b5f61065a82610e64565b505f828152600460205260409020546001600160a01b03166104f8565b610682828233610e9c565b5050565b6001600160a01b0382166106b457604051633250574960e11b81525f60048201526024015b60405180910390fd5b5f6106c0838333610ea9565b9050836001600160a01b0316816001600160a01b03161461070e576040516364283d7b60e01b81526001600160a01b03808616600483015260248201849052821660448201526064016106ab565b50505050565b5f8181526008602052604081206006015460ff16610745576040516307ed98ed60e31b815260040160405180910390fd5b505f9081526008602052604090206005015490565b61077483838360405180602001604052805f815250610bb4565b505050565b335f908152600a602052604090205460ff16156107a957604051630d25be8360e21b815260040160405180910390fd5b600780545f91826107b983611a37565b9190505590506107c93382610f39565b6040805160e0810182525f8082525f196020808401918252838501838152606085018481526080860185815260a08701868152600160c089018181528b8952600887528a892099518a55965189820155935160028901559151600388015551600487015551600586015591516006909401805494151560ff199586161790553380845260098252858420879055600a9091528483208054909416909117909255915183927f9acab985beb5a8e9dee68b1ae2706bb0ac978d66e7160b89b4d405f097ffe51391a350565b5f6104f882610e64565b5f6001600160a01b0382166108c7576040516322718ad960e21b81525f60048201526024016106ab565b506001600160a01b03165f9081526003602052604090205490565b6108ea610e37565b6108f35f610f52565b565b6060600180546105cf906119ff565b6001600160a01b0381165f908152600a602052604081205460ff1661092a57505f919050565b6001600160a01b0382165f9081526009602090815260408083205480845260088352818420825160e081018452815481526001820154948101949094526002810154928401929092526003820154606084015260048201546080840152600582015460a084015260069091015460ff16151560c0830152916109af6201518042611a4f565b60209092015190911415949350505050565b610682338383610fa3565b335f908152600a602052604090205460ff166109fb5760405163172f599760e21b815260040160405180910390fd5b335f9081526009602090815260408083205480845260089092529091206004810154610a695760405162461bcd60e51b815260206004820152601860248201527f4e6f20657874726120776174657220617661696c61626c65000000000000000060448201526064016106ab565b5f610a776201518042611a4f565b905080826001015403610ac45760405162461bcd60e51b8152602060048201526015602482015274416c7265616479207761746572656420746f64617960581b60448201526064016106ab565b600482018054905f610ad583611a6e565b90915550508154825f610ae783611a37565b91905055505f19826001015403610b045760016002830155610b3c565b610b0f600182611a83565b826001015403610b3457600282018054905f610b2a83611a37565b9190505550610b3c565b600160028301555b816003015482600201541115610b5757600282015460038301555b60018201819055610b6783611041565b8154600283015460405185927f91135c029f2d9991cac34d880ba57acafc681817f3184a3ae527eba03c941ec092610ba792918252602082015260400190565b60405180910390a2505050565b610bbf848484610686565b61070e33858585856110e6565b610c076040518060e001604052805f81526020015f81526020015f81526020015f81526020015f81526020015f81526020015f151581525090565b6001600160a01b0382165f908152600a602052604090205460ff16610c3f5760405163172f599760e21b815260040160405180910390fd5b506001600160a01b03165f9081526009602090815260408083205483526008825291829020825160e081018452815481526001820154928101929092526002810154928201929092526003820154606082015260048201546080820152600582015460a082015260069091015460ff16151560c082015290565b6060610cc482610e64565b505f610cda60408051602081019091525f815290565b90505f815111610cf85760405180602001604052805f815250610d23565b80610d028461120e565b604051602001610d13929190611aad565b6040516020818303038152906040525b9392505050565b335f908152600a602052604090205460ff16610d595760405163172f599760e21b815260040160405180910390fd5b335f90815260096020908152604080832054808452600890925282209091610d846201518042611a4f565b905080826001015403610daa5760405163af4190cd60e01b815260040160405180910390fd5b8154825f610ae783611a37565b600b8160058110610dc6575f80fd5b0154905081565b6001600160a01b039182165f90815260056020908152604080832093909416825291909152205460ff1690565b610e02610e37565b6001600160a01b038116610e2b57604051631e4fbdf760e01b81525f60048201526024016106ab565b610e3481610f52565b50565b6006546001600160a01b031633146108f35760405163118cdaa760e01b81523360048201526024016106ab565b5f818152600260205260408120546001600160a01b0316806104f857604051637e27328960e01b8152600481018490526024016106ab565b610774838383600161129e565b5f5f610eb68585856113a2565b90506001600160a01b03811615610ef2576001600160a01b0381165f908152600a60209081526040808320805460ff1916905560099091528120555b6001600160a01b03851615610f31576001600160a01b0385165f908152600a60209081526040808320805460ff19166001179055600990915290208490555b949350505050565b610682828260405180602001604052805f815250611494565b600680546001600160a01b038381166001600160a01b0319831681179093556040519116919082907f8be0079c531659141344cd1fd0a4f28419497f9722a3daafe3b4186f6b6457e0905f90a35050565b6001600160a01b038216610fd557604051630b61174360e31b81526001600160a01b03831660048201526024016106ab565b6001600160a01b038381165f81815260056020908152604080832094871680845294825291829020805460ff191686151590811790915591519182527f17307eab39ab6107e8899845ad3d59bd9653f200f220920489ca2b5937696c31910160405180910390a3505050565b5f818152600860205260408120805490918061105f60016005611a83565b90505b600b816005811061107557611075611ac1565b0154831061108557809150611097565b8061108f81611a6e565b915050611062565b50826005015481111561070e576005830181905560405181815284907f66d34ef9021037822e70769b9e5173e1de561863c26d675652cdfbec4e891a009060200160405180910390a250505050565b6001600160a01b0383163b1561120757604051630a85bd0160e11b81526001600160a01b0384169063150b7a0290611128908890889087908790600401611ad5565b6020604051808303815f875af1925050508015611162575060408051601f3d908101601f1916820190925261115f91810190611b11565b60015b6111c9573d80801561118f576040519150601f19603f3d011682016040523d82523d5f602084013e611194565b606091505b5080515f036111c157604051633250574960e11b81526001600160a01b03851660048201526024016106ab565b805160208201fd5b6001600160e01b03198116630a85bd0160e11b1461120557604051633250574960e11b81526001600160a01b03851660048201526024016106ab565b505b5050505050565b60605f61121a836114ab565b60010190505f8167ffffffffffffffff81111561123957611239611881565b6040519080825280601f01601f191660200182016040528015611263576020820181803683370190505b5090508181016020015b5f19016f181899199a1a9b1b9c1cb0b131b232b360811b600a86061a8153600a850494508461126d57509392505050565b80806112b257506001600160a01b03821615155b15611373575f6112c184610e64565b90506001600160a01b038316158015906112ed5750826001600160a01b0316816001600160a01b031614155b801561130057506112fe8184610dcd565b155b156113295760405163a9fbf51f60e01b81526001600160a01b03841660048201526024016106ab565b81156113715783856001600160a01b0316826001600160a01b03167f8c5be1e5ebec7d5bd14f71427d1e84f3dd0314c0f7b2291e5b200ac8c7c3b92560405160405180910390a45b505b50505f90815260046020526040902080546001600160a01b0319166001600160a01b0392909216919091179055565b5f828152600260205260408120546001600160a01b03908116908316156113ce576113ce818486611582565b6001600160a01b03811615611408576113e95f855f5f61129e565b6001600160a01b0381165f90815260036020526040902080545f190190555b6001600160a01b03851615611436576001600160a01b0385165f908152600360205260409020805460010190555b5f8481526002602052604080822080546001600160a01b0319166001600160a01b0389811691821790925591518793918516917fddf252ad1be2c89b69c2b068fc378daa952ba7f163c4a11628f55a4df523b3ef91a4949350505050565b61149e83836115e6565b610774335f8585856110e6565b5f8072184f03e93ff9f4daa797ed6e38ed64bf6a1f0160401b83106114e95772184f03e93ff9f4daa797ed6e38ed64bf6a1f0160401b830492506040015b6d04ee2d6d415b85acef81000000008310611515576d04ee2d6d415b85acef8100000000830492506020015b662386f26fc10000831061153357662386f26fc10000830492506010015b6305f5e100831061154b576305f5e100830492506008015b612710831061155f57612710830492506004015b60648310611571576064830492506002015b600a83106104f85760010192915050565b61158d838383611647565b610774576001600160a01b0383166115bb57604051637e27328960e01b8152600481018290526024016106ab565b60405163177e802f60e01b81526001600160a01b0383166004820152602481018290526044016106ab565b6001600160a01b03821661160f57604051633250574960e11b81525f60048201526024016106ab565b5f61161b83835f610ea9565b90506001600160a01b03811615610774576040516339e3563760e11b81525f60048201526024016106ab565b5f6001600160a01b03831615801590610f315750826001600160a01b0316846001600160a01b0316148061168057506116808484610dcd565b80610f315750505f908152600460205260409020546001600160a01b03908116911614919050565b6001600160e01b031981168114610e34575f5ffd5b5f602082840312156116cd575f5ffd5b8135610d23816116a8565b80356001600160a01b03811681146116ee575f5ffd5b919050565b5f5f5f5f60608587031215611706575f5ffd5b61170f856116d8565b935060208501359250604085013567ffffffffffffffff811115611731575f5ffd5b8501601f81018713611741575f5ffd5b803567ffffffffffffffff811115611757575f5ffd5b876020828401011115611768575f5ffd5b949793965060200194505050565b5f81518084528060208401602086015e5f602082860101526020601f19601f83011685010191505092915050565b602081525f610d236020830184611776565b5f602082840312156117c6575f5ffd5b5035919050565b5f5f604083850312156117de575f5ffd5b6117e7836116d8565b946020939093013593505050565b5f5f5f60608486031215611807575f5ffd5b611810846116d8565b925061181e602085016116d8565b929592945050506040919091013590565b5f6020828403121561183f575f5ffd5b610d23826116d8565b5f5f60408385031215611859575f5ffd5b611862836116d8565b915060208301358015158114611876575f5ffd5b809150509250929050565b634e487b7160e01b5f52604160045260245ffd5b5f5f5f5f608085870312156118a8575f5ffd5b6118b1856116d8565b93506118bf602086016116d8565b925060408501359150606085013567ffffffffffffffff8111156118e1575f5ffd5b8501601f810187136118f1575f5ffd5b803567ffffffffffffffff81111561190b5761190b611881565b604051601f8201601f19908116603f0116810167ffffffffffffffff8111828210171561193a5761193a611881565b604052818152828201602001891015611951575f5ffd5b816020840160208301375f6020838301015280935050505092959194509250565b5f5f60408385031215611983575f5ffd5b61198c836116d8565b915061199a602084016116d8565b90509250929050565b634e487b7160e01b5f52601160045260245ffd5b808201808211156104f8576104f86119a3565b83815260406020820152816040820152818360608301375f818301606090810191909152601f909201601f1916010192915050565b600181811c90821680611a1357607f821691505b602082108103611a3157634e487b7160e01b5f52602260045260245ffd5b50919050565b5f60018201611a4857611a486119a3565b5060010190565b5f82611a6957634e487b7160e01b5f52601260045260245ffd5b500490565b5f81611a7c57611a7c6119a3565b505f190190565b818103818111156104f8576104f86119a3565b5f81518060208401855e5f93019283525090919050565b5f610f31611abb8386611a96565b84611a96565b634e487b7160e01b5f52603260045260245ffd5b6001600160a01b03858116825284166020820152604081018390526080606082018190525f90611b0790830184611776565b9695505050505050565b5f60208284031215611b21575f5ffd5b8151610d23816116a856fea26469706673582212204cbf15a4f22b5c8ceb71f95232e7c50e1de814f5f837129d721194d4b5982fac64736f6c634300081c0033","linkReferences":{}},"methodIdentifiers":{"addExtraWater(address,uint256,string)":"037b397f","approve(address,uint256)":"095ea7b3","balanceOf(address)":"70a08231","canWaterToday(address)":"99393857","getApproved(uint256)":"081812fc","getStage(uint256)":"2e325020","getTreeData(address)":"ba878100","hasTree(address)":"2877b3d6","isApprovedForAll(address,address)":"e985e9c5","mintTree()":"61c05ab6","name()":"06fdde03","owner()":"8da5cb5b","ownerOf(uint256)":"6352211e","renounceOwnership()":"715018a6","safeTransferFrom(address,address,uint256)":"42842e0e","safeTransferFrom(address,address,uint256,bytes)":"b88d4fde","setApprovalForAll(address,bool)":"a22cb465","stageThresholds(uint256)":"dfacde12","supportsInterface(bytes4)":"01ffc9a7","symbol()":"95d89b41","tokenURI(uint256)":"c87b56dd","totalSupply()":"18160ddd","transferFrom(address,address,uint256)":"23b872dd","transferOwnership(address)":"f2fde38b","trees(uint256)":"7a508022","useExtraWater()":"a2937d2a","userToTreeId(address)":"934b7b12","waterTree()":"d97e5aff"},"id":34}